S0170000426F6F7374436F6E74726F6C6C65722E73726563E2
S11300000C9434000C9451000C9451000C94510045
S11300100C9451000C9451000C9451000C94510018
S11300200C9451000C9451000C9451000C946E01EA
S11300300C9451000C9451000C9451000C945100F8
S11300400C9451000C9451000C9451000C945100E8
S11300500C9451000C9451000C9451000C945100D8
S11300600C9451000C94510011241FBECFEFD8E022
S1130070DEBFCDBF11E0A0E0B1E0EAEAF7E002C0E4
S113008005900D92A430B107D9F721E0A4E0B1E0C6
S113009001C01D92A530B207E1F70E947D010C94C6
S11300A0D3030C94000080E480937C0087E8809361
S11300B07A000895EAE7F0E080818064808380918B
S11300C07A0086FDFCCF80917800909179000895A4
S11300D01092800089E0809381008FE79EE39093E3
S11300E089008093880082E080936F0008958AB12C
S11300F080628AB983E284BD89E085BD8FE987BDCA
S113010080E588BD0895CF92DF92EF92FF926B0154
S11301107C0120E030E04AE754E40E94FA0188239D
S113012044F40F2EC12CD12CFAE7EF2EF4E4FF2E69
S1130130F02D20E030E04AE755E4C701B6010E9403
S11301405203181644F40F2EC12CD12CFAE7EF2ECB
S1130150F5E4FF2EF02D20E030E44CE955E4C7012E
S1130160B6010E94FF0120E030E040E253E40E9427
S113017057030E94710268BDFF90EF90DF90CF900B
S113018008954F925F926F927F928F929F92AF9257
S1130190BF92CF92DF92EF92FF920E945A009C018D
S11301A0A8E8B3E10E94C403DC01CB01072E7AE086
S11301B0B695A795979587957A95D1F7702DBC013B
S11301C0660F771FCB01A0E0B0E0BC01CD016858F9
S11301D07341810991090E94A2024B015C012DEC3B
S11301E03CEC4CE45EE30E9457036B017C012FE678
S11301F032E143E85AE3C501B4010E945703209158
S113020000013091010140910201509103010E94CB
S11302108E012B013C019B01AC01C701B6010E9478
S11302208E014B015C0120E030E04AE754E40E9477
S11302305203882394F020E030E04AE755E4C501F6
S1130240B4010E94FA01181644F040920001509241
S1130250010160920201709203012091000130912A
S113026001014091020150910301C701B6010E94AE
S11302708E016B017C0120E030E04AE755E40E94E6
S11302805203181644F40F2EC12CD12CFAE7EF2E8A
S1130290F5E4FF2EF02D20E030E04AE754E4C701F6
S11302A0B6010E94FA01882344F40F2EC12CD12CEC
S11302B0FAE7EF2EF4E4FF2EF02DC701B6010E94F9
S11302C08300FF90EF90DF90CF90BF90AF909F900E
S11302D08F907F906F905F904F9008951F920F9230
S11302E00FB60F9211248F9381E0809304018F91B4
S11302F00F900FBE0F901F9018950E9453000E94FC
S113030077000E9468007894809104018823E1F3C7
S1130310109204010E94C100F7CF5058BB27AA27AE
S11303200E94A5010C9418030E940A0338F00E944D
S1130330110320F039F49F3F19F426F40C940703B9
S11303400EF4E095E7FB0C940103E92F0E942903C6
S113035058F3BA17620773078407950720F079F4F6
S1130360A6F50C944B030EF4E0950B2EBA2FA02D9A
S11303700B01B90190010C01CA01A0011124FF274E
S1130380591B99F0593F50F4503E68F11A16F04049
S1130390A22F232F342F4427585FF3CF4695379548
S11303A02795A795F0405395C9F77EF41F16BA0B0D
S11303B0620B730B840BBAF09150A1F0FF0FBB1FBB
S11303C0661F771F881FC2F70EC0BA0F621F731F04
S11303D0841F48F4879577956795B795F7959E3F61
S11303E008F0B0CF9395880F08F09927EE0F9795F2
S11303F0879508950E94DD0208F481E008950E9423
S113040013020C9418030E94110358F00E940A036B
S113041040F029F45F3F29F00C94010351110C942E
S11304204C030C9407030E94290368F39923B1F346
S1130430552391F3951B550BBB27AA276217730706
S1130440840738F09F5F5F4F220F331F441FAA1F9A
S1130450A9F335D00E2E3AF0E0E832D09150504056
S1130460E695001CCAF72BD0FE2F29D0660F771F04
S1130470881FBB1F261737074807AB07B0E809F0EA
S1130480BB0B802DBF01FF2793585F4F3AF09E3F6F
S1130490510578F00C9401030C944C035F3FE4F392
S11304A0983ED4F3869577956795B795F7959F5FB2
S11304B0C9F7880F911D9695879597F90895E1E0FE
S11304C0660F771F881FBB1F621773078407BA075D
S11304D020F0621B730B840BBA0BEE1F88F7E095B8
S11304E008950E94310388F09F5798F0B92F9927F7
S11304F0B751B0F0E1F0660F771F881F991F1AF00B
S1130500BA95C9F714C0B13091F00E944B03B1E021
S113051008950C944B03672F782F8827B85F39F020
S1130520B93FCCF3869577956795B395D9F73EF4A3
S113053090958095709561957F4F8F4F9F4F08954B
S1130540E89409C097FB3EF4909580957095619569
S11305507F4F8F4F9F4F9923A9F0F92F96E9BB271F
S11305609395F695879577956795B795F111F8CF9B
S1130570FAF4BB0F11F460FF1BC06F5F7F4F8F4F06
S11305809F4F16C0882311F096E911C0772321F0FC
S11305909EE8872F762F05C0662371F096E8862F94
S11305A070E060E02AF09A95660F771F881FDAF7EB
S11305B0880F9695879597F90895990F0008550F18
S11305C0AA0BE0E8FEEF16161706E807F907C0F0D5
S11305D012161306E407F50798F0621B730B840BDD
S11305E0950B39F40A2661F0232B242B252B21F4B7
S11305F008950A2609F4A140A6958FEF811D811D57
S1130600089597F99F6780E870E060E008959FEF90
S113061080EC089500240A94161617061806090695
S1130620089500240A941216130614060506089564
S1130630092E0394000C11F4882352F0BB0F40F4EC
S1130640BF2B11F460FF04C06F5F7F4F8F4F9F4F2C
S1130650089557FD9058440F551F59F05F3F71F0AE
S11306604795880F97FB991F61F09F3F79F0879515
S11306700895121613061406551FF2CF4695F1DF9E
S113068008C0161617061806991FF1CF869571052E
S1130690610508940895E894BB2766277727CB0162
S11306A097F908950E94DD0208F48FEF08950E94DF
S11306B06A030C9418030E940A0338F00E94110381
S11306C020F0952311F00C9401030C9407031124DA
S11306D00C944C030E94290370F3959FC1F3950F6A
S11306E050E0551F629FF001729FBB27F00DB11DB2
S11306F0639FAA27F00DB11DAA1F649F6627B00D42
S1130700A11D661F829F2227B00DA11D621F739F2A
S1130710B00DA11D621F839FA00D611D221F749F38
S11307203327A00D611D231F849F600D211D822F7F
S1130730762F6A2F11249F5750409AF0F1F08823A6
S11307404AF0EE0FFF1FBB1F661F771F881F9150D3
S11307505040A9F79E3F510580F00C9401030C947E
S11307604C035F3FE4F3983ED4F386957795679501
S1130770B795F795E7959F5FC1F7FE2B880F911DFD
S11307809695879597F90895A29FB001B39FC001EC
S1130790A39F700D811D1124911DB29F700D811DA9
S10D07A01124911D0895F894FFCF71
S10707AA00401C45A6
S9030000FC
