S0170000426F6F7374436F6E74726F6C6C65722E73726563E2
S11300000C9434000C9446000C9446000C94460066
S11300100C9446000C9446000C9446000C94460044
S11300200C9446000C9446000C9446000C945D001D
S11300300C9446000C9446000C9446000C94460024
S11300400C9446000C9446000C9446000C94460014
S11300500C9446000C9446000C9446000C94460004
S11300600C9446000C94460011241FBECFEFD8E038
S1130070DEBFCDBF21E0A0E0B1E001C01D92A530FC
S1130080B207E1F70E947B000C944C020C94000030
S113009080E480937C0087E880937A000895EAE7FF
S11300A0F0E080818064808380917A0086FDFCCFBB
S11300B0809178009091790008951F920F920FB665
S11300C00F9211248F9381E0809300018F910F9000
S11300D00FBE0F901F9018951092800089E08093B6
S11300E081008FE79EE3909389008093880082E0EB
S11300F080936F0008958AB180628AB983E284BDD7
S113010089E085BD8FE987BD80E588BD0E944800F0
S11301100E946C0078940E944F009C01A8E8B3E10F
S11301200E943D02DC01CB01072E7AE0B695A7952B
S1130130979587957A95D1F7702DBC01660F771F37
S1130140CB01A0E0B0E0BC01CD0168587341810946
S113015091090E94440120E030E040E251E40E9411
S1130160D0012FE632E143E85AE30E94D0019B011B
S1130170AC016091010170910201809103019091A1
S113018004010E94D60060930101709302018093E0
S11301900301909304012FE986E891E02150804007
S11301A09040E1F700C00000B6CF5058BB27AA2703
S11301B00E94ED000C9496010E94880138F00E9480
S11301C08F0120F039F49F3F19F426F40C94850133
S11301D00EF4E095E7FB0C947F01E92F0E94A70140
S11301E058F3BA17620773078407950720F079F468
S11301F0A6F50C94C9010EF4E0950B2EBA2FA02D90
S11302000B01B90190010C01CA01A0011124FF27BF
S1130210591B99F0593F50F4503E68F11A16F040BA
S1130220A22F232F342F4427585FF3CF46953795B9
S11302302795A795F0405395C9F77EF41F16BA0B7E
S1130240620B730B840BBAF09150A1F0FF0FBB1F2C
S1130250661F771F881FC2F70EC0BA0F621F731F75
S1130260841F48F4879577956795B795F7959E3FD2
S113027008F0B0CF9395880F08F09927EE0F979563
S113028087950895E89409C097FB3EF4909580956E
S1130290709561957F4F8F4F9F4F9923A9F0F92F48
S11302A096E9BB279395F695879577956795B795C6
S11302B0F111F8CFFAF4BB0F11F460FF1BC06F5FAC
S11302C07F4F8F4F9F4F16C0882311F096E911C0BE
S11302D0772321F09EE8872F762F05C0662371F0DF
S11302E096E8862F70E060E02AF09A95660F771FF3
S11302F0881FDAF7880F9695879597F9089597F9E7
S11303009F6780E870E060E008959FEF80EC0895B7
S113031000240A94161617061806090608950024E0
S11303200A9412161306140605060895092E03945A
S1130330000C11F4882352F0BB0F40F4BF2B11F4CE
S113034060FF04C06F5F7F4F8F4F9F4F089557FD2D
S11303509058440F551F59F05F3F71F04795880F2F
S113036097FB991F61F09F3F79F0879508951216C6
S113037013061406551FF2CF4695F1DF08C0161672
S113038017061806991FF1CF869571056105089423
S11303900895E894BB2766277727CB0197F908953A
S11303A00E94E3010C9496010E94880138F00E9497
S11303B08F0120F0952311F00C947F010C9485019A
S11303C011240C94CA010E94A70170F3959FC1F3F4
S11303D0950F50E0551F629FF001729FBB27F00DEF
S11303E0B11D639FAA27F00DB11DAA1F649F662744
S11303F0B00DA11D661F829F2227B00DA11D621F93
S1130400739FB00DA11D621F839FA00D611D221F4C
S1130410749F3327A00D611D231F849F600D211D30
S1130420822F762F6A2F11249F5750409AF0F1F0B3
S113043088234AF0EE0FFF1FBB1F661F771F881F1C
S113044091505040A9F79E3F510580F00C947F01D4
S11304500C94CA015F3FE4F3983ED4F386957795F4
S11304606795B795F795E7959F5FC1F7FE2B880FC2
S1130470911D9695879597F90895A29FB001B39F12
S1130480C001A39F700D811D1124911DB29F700D99
S10F0490811D1124911D0895F894FFCFE4
S9030000FC
